:020000040800F2
:10000000D0240020D1020008774C000815420008D7
:10001000754C000841190008415D0008000000000F
:10002000000000000000000000000000455400082F
:10003000CD1E0008000000004F4F000829550008A1
:10004000EB020008EB020008EB020008EB020008DC
:10005000EB020008EB020008EB020008EB020008CC
:10006000EB020008EB020008EB020008EB020008BC
:10007000EB020008EB020008EB020008EB020008AC
:10008000EB020008EB020008EB020008EB0200089C
:10009000EB020008EB020008EB020008EB0200088C
:1000A000EB020008EB020008EB020008EB0200087C
:1000B000EB020008EB020008EB020008EB0200086C
:1000C000EB020008EB020008EB020008EB0200085C
:1000D000EB020008C95C0008EB020008EB02000814
:1000E000EB020008EB020008EB020008EB0200083C
:1000F000EB020008EB020008EB020008EB0200082C
:10010000EB020008EB020008EB020008EB0200081B
:10011000EB020008EB020008EB020008EB0200080B
:10012000EB020008F91D0008051E0008EB0200089C
:10013000EB0200080000000000000000EB020008D5
:10014000EB020008EB020008EB020008EB020008DB
:10015000EB020008111E00081D1E0008EB0200083B
:10016000EB020008EB020008EB020008EB020008BB
:10017000EB020008EB020008EB02000800000000A0
:1001800000000000EB02000800000000000000007A
:10019000EB0200080000000000000000EB02000875
:1001A000000000000000000000000000EB0200085A
:1001B000EB020008EB020008EB020008EB0200086B
:1001C000EB02000800F002F800F072F80AA090E8D4
:1001D000000C82448344AAF10107DA4501D100F002
:1001E00067F8AFF2090EBAE80F0013F0010F18BF5D
:1001F000FB1A43F0010318470C7500002C75000032
:100200000A444FF0000C10F8013B13F0070408BF3C
:1002100010F8014B1D1108BF10F8015B641E05D0DA
:1002200010F8016B641E01F8016BF9D113F0080F8F
:100230001EBF10F8014BAD1C0C1B09D16D1E58BF21
:1002400001F801CBFAD505E014F8016B01F8016B58
:100250006D1EF9D59142D6D37047000000230024CB
:1002600000250026103A28BF78C1FBD8520728BFC6
:1002700030C148BF0B607047662907F01C816429B4
:1002800000F00281752900F0FF80782900F03881A4
:10029000002070471FB507F08AF800F07BFD0400CE
:1002A0000020002106F0E8FDE0601FBD10B510BD84
:1002B00000F074FE1146FFF7EDFF06F0C9F900F0FB
:1002C00092FE03B4FFF7F2FF03BC00F0D5FE00007E
:1002D0000948804709480047FEE7FEE7FEE7FEE7DA
:1002E000FEE7FEE7FEE7FEE7FEE7FEE70448054916
:1002F000054A064B70470000CD550008C5010008AF
:10030000D01E0020D0240020D0200020D0200020AB
:1003100053EA020C00F069802DE9F04B4FF0000623
:10032000002B1FBFB3FA83F503FA05F424FA05F690
:100330005E4012BF1643B2FA82F502FA05F4C5F127
:1003400020051EBF22FA05FC44EA0C04203556EABB
:10035000044C4FEA144418BF641C4FF000084FF0DF
:100360000009904271EB030C39D3002919BFB1FA8F
:1003700081F701FA07F6B0FA80F700FA07F6C7F13D
:1003800020071EBF20FA07FC46EA0C062037B6FB02
:10039000F4FCA7EB0507103F07F01F0BCBF120067D
:1003A0000CFA0BFB2CFA06F644BFB3460026202FAE
:1003B000A4BF5E464FF0000B5BEA060C08BF4FF08F
:1003C000010B19EB0B09ABFB027C48EB0608C01BC9
:1003D00006FB02CC0BFB03CC71EB0C01C1E70B4617
:1003E000024641464846BDE8F08B13B54FF0000089
:1003F0004FF00001AFF30080BDE81C4070470000E3
:100400000FB47CB50C0009AA009001D02044401E16
:10041000084B7B4469460190089800F09AFC054619
:100420001CB10020694600F0A7FC28467CBC5DF8A2
:1004300014FB00006D09000070B504468569006872
:10044000C10601D5302600E02026C00707D070BDC8
:10045000D4E9012130469047206A401C20626D1E7D
:10046000F6D570BD70B5044685690078C00707D120
:1004700070BDD4E9012120209047206A401C2062F1
:100480006D1EF6D570BD00002DE9F0410646002432
:1004900010687529314616A510D0AFF300800028EA
:1004A00002DA404213A507E031688A0701D512A598
:1004B00002E0490704D511A5012401E0AFF3008053
:1004C00000210A2206F1240709E0B0FBF2FCB0FB90
:1004D000F2F302FB1C00303078541846491C002807
:1004E000F3D123462A463046BDE8F04100F0C3B9B7
:1004F000000000002D0000002B0000002000000084
:1005000070B504460D4621461068AFF3008021887F
:10051000090502D50F4A7A4402E00E4A7A440E32A7
:10052000002104F1240305E000F00F060009965DA8
:100530005E54491C0028F7D120780023000704D519
:10054000702D02D009B1022311322046BDE870405F
:1005500000F091B90E7000002DE9F05F8946044665
:100560004FF0000ADFF874B1FB44C0F820A0204629
:10057000E1688847002874D0252806D0D4E90121F5
:100580009047206A401C2062F1E700265F46204623
:10059000E16888472028054607DB312D05D2781908
:1005A00010F8200C08B10643F1E7B00701D526F09A
:1005B0000406C4F81CA00027C4F818A02A2D09D0EE
:1005C000284606F03DF838B304EB8708303DC8F8FC
:1005D000185019E059F8041B204604EB870291617A
:1005E000E1688847012F054618D1E069002820DA24
:1005F00026F020061DE0D8F8180000EB800005EB7F
:1006000040003038C8F818002046E16888470546A1
:1006100006F016F80028EED1012F0AD02E2D08D1B1
:100620002046E16888477F1C0546022F46F02006D9
:10063000C4DBA069002803DA404246F00106A0614D
:10064000F00701D026F010066C2D0BD0682D09D0D4
:100650004C2D39D06A2D35D0742D35D07A2D33D02C
:1006600016E038E0E1682F4620468847B842054644
:1006700009D16C2F26D04FF48060E16806432046F4
:100680008847054604E06C2F1AD04FF4807006436B
:100690000DB3A5F14100192802D8203546F40066B3
:1006A0004A462946204626604E46FFF7E5FD80B1C2
:1006B00001280BD0F61D26F0070000F1080956E7C7
:1006C0004020E4E78020D8E70020D6E706F10409BF
:1006D0004DE7284652E7206ABDE8F09FE46F00002E
:1006E00010B5431C02E010F8011B71B18107FAD16B
:1006F0004FF0013202C88C1A8C4314EAC211F9D0AF
:10070000C01A0A0603D0C01E10BDC01A10BD0A04CC
:1007100001D0801E10BD0902FCD0401E10BD032A6E
:1007200040F2308010F0030C00F0158011F8013B0E
:10073000BCF1020F624498BF11F801CB00F8013BF5
:1007400038BF11F8013BA2F1040298BF00F801CBB9
:1007500038BF00F8013B11F0030300F02580083A90
:10076000C0F0088051F8043B083A51F804CBA0E8E7
:100770000810F5E7121D5CBF51F8043B40F8043B3C
:10078000AFF30080D20724BF11F8013B11F801CB71
:1007900048BF11F8012B24BF00F8013B00F801CB42
:1007A00048BF00F8012B704710B5203AC0F00B800D
:1007B000B1E81850203AA0E81850B1E81850A0E865
:1007C0001850BFF4F5AF5FEA027C24BFB1E81850BF
:1007D000A0E8185044BF18C918C0BDE810405FEA2F
:1007E000827C24BF51F8043B40F8043B08BF7047AB
:1007F000D20728BF31F8023B48BF11F8012B28BFB0
:1008000020F8023B48BF00F8012B70474FF0000270
:1008100000B5134694469646203922BFA0E80C50F6
:10082000A0E80C50B1F12001BFF4F7AF090728BFD1
:10083000A0E80C5048BF0CC05DF804EB890028BF4D
:1008400040F8042B08BF704748BF20F8022B11F076
:10085000804F18BF00F8012B7047704770477047F2
:1008600010B500F09BFA006810BD10B5044600F00A
:1008700095FA046010BD2DE9F0470D469946924661
:10088000044600F124080168880604D5E06921F0D7
:100890001001216000E00120A84201DD471B00E0BB
:1008A0000027A1697A1902EB0900081AA0612078D3
:1008B000C00602D42046FFF7BFFD002608E0D4E9B9
:1008C00001211AF806009047206A401C761C20621D
:1008D0004E45F4DB2078C0060AD52046FFF7ACFD74
:1008E00006E0D4E9012130209047206A401C2062B4
:1008F000381EA7F10107F4DC07E0D4E9012118F85C
:1009000005009047206A401C2062281EA5F10105C1
:10091000F3DC2046FFF7A6FD2078000602D5022072
:10092000BDE8F0870120FBE770472DE9FF4F0C463B
:100930001E464FF0FF378BB0D2E90001DDF8608032
:100940000A908A46C1F30A5505B93D46002108467A
:100950004FF00000BAF1000F00F4400005DA00EBA0
:1009600080004FF4400101EA50004FEA9059B9F17C
:10097000010F00DDB9460A9850EA4A000ED044F64D
:100980001050A5F2FF3545432F14B8F1000F1ED0CB
:100990007542291E1EDDC9F100021CE0B8F1010FED
:1009A0004FF0000001D0302103E0F24305E0215474
:1009B000401CB042FBDB30460022002121540B9941
:1009C000C1F80880C1E900200FB0BDE8F08FBD1B61
:1009D0006D1CDEE74A4600DA694206A800F068FAB4
:1009E00006AB93E8070003AB83E8070050460A997B
:1009F00000F049FB8DE80700A0F500501F3800907B
:100A00000398002D0ADD42F21F014A4608440023E4
:100A100003A90390684600F0B2FD09E0A0F500507C
:100A20004A461F38002303A90390684600F0BCFD26
:100A30008DE807000004000C03D04FF0FF304108A0
:100A400000E01046B8F1000F03D0002200921546D6
:100A50001EE0751E05D400F0A5F9303262556D1EFA
:100A6000F9D5B3460122084302D000227F1C04E0DE
:100A70002078302801D100227F1E002A099784D0D7
:100A80001DE0112D07DA00F08DF9303262556D1C32
:100A900050EA0102F5D1084302D00098C8B10EE037
:100AA0000021681E05E0235C625C63542254401EF2
:100AB000491C8142F7DBAB46A81B401E0990002071
:100AC00004F80B000B98099AC0F80880C0E9002BC5
:100AD0007AE711264FF0000857E72DE9F04F8846D6
:100AE0000446D21D22F0070191B0D1E90001CDE901
:100AF0000A0105F026F902460B98C00F01D02D20FF
:100B000007E02068810701D52B2002E0202101EABF
:100B1000C000032A099001D0072A05DB034641469D
:100B2000204600F085F90BE12078800601D5E069C8
:100B300000E00620B8F1650F814606D0B8F1660FD7
:100B400018D0B8F1670F70D131E00020B9F1110F62
:100B5000009001DB112301E009F101030AAA01A9B8
:100B60000CA8FFF7E2FEDDE90C70002609F1010593
:100B7000834647E001204B4600904FF000470AAA09
:100B800001A90CA8FFF7D1FEDDE90DB00C995D4677
:100B9000002610B909F101000D18B9EB050003D4C6
:100BA000C0F1FF3609F10105A5EB09002BE0B9F111
:100BB000010F01DA4FF001090020B9F1110F009087
:100BC000484601DD112300E003460AAA01A90CA84A
:100BD000FFF7ABFEDDE90C704D460026834620781A
:100BE00000070AD4AB4500DA5D4601A8012D04DDFB
:100BF000411911F8011C302907D04F4502DA17F1CD
:100C0000040F04DA012082460FE06D1EEEE7002F8C
:100C100002DCED1B3E4403E0781CA84200DD7D1C95
:100C2000B81B00F1010A4FF000472078000703D4F9
:100C3000AA4501DB4FF0FF3A0021B7F1004F0DF15B
:100C400043088DF8431024D002202B23002F01DA13
:100C50007F422D230A21021EA0F1010000DC5FB1BA
:100C600097FBF1FC97FBF1F201FB1C7C17460CF1A2
:100C7000300C08F801CDEEE7A8F1010003702188DF
:100C8000090501D5452100E06521A0F1010800F822
:100C9000011C09980FA9A1EB0807FF1D00B1012055
:100CA000411901EBEA70A1693844081A401EA0619D
:100CB0002078C00602D42046FFF7BEFB099828B171
:100CC000D4E901219047206A401C20622078C006A8
:100CD00022D52046FFF7B0FB1EE0002E04DBB34513
:100CE00002DD01A8805D00E03020D4E901219047B9
:100CF000206A401C2062761CAAF101005FEA000A0B
:100D00000AD100F047F8C0680168405CD4E90121CD
:100D10009047206A401C2062281EA5F10105DCDCFA
:100D200007E0D4E9012118F8010B9047206A401C24
:100D30002062381EA7F10107F3DC2046FFF792FB83
:100D4000032011B041E6000001694A1C02610878E5
:100D5000704700B58FB0CDE90131002105910549FB
:100D60007944CDE9031011466846FFF7F5FB0FB053
:100D700000BD0000E5FFFFFF0A6802F8010B0A60F2
:100D80007047D1E900239A4202D2531C0B601070C5
:100D900070470000004870478C1E002000487047D4
:100DA0006C1E002030B5B0F10A024FEA900E71F1CE
:100DB00000034EEA817EB0EB0E0061EB91014FEA39
:100DC000101E4EEA017E10EB0E0041EB11114FEAAE
:100DD000102E4EEA016E10EB0E0041EB11214FEA8E
:100DE000104E4EEA014E10EB0E0041EB114140183F
:100DF00041F100014FEAD00040EA41704FEAD101D1
:100E000010EB80054FEA810444EA907444EB01043E
:100E10006D1944EB0404521BA3414FF0000348BF7B
:100E20000A3200D530BD401C41F1000130BD000048
:100E30002DE9F0411F46044603260168072A01F404
:100E4000006004DB08B116A505E016A503E008B1B3
:100E500015A500E015A521F010002060A069C01EB6
:100E6000A0610FB1401EA0612046FFF7E5FA4FB127
:100E7000D4E9012138469047206A401C2062C01CFA
:100E8000206206E0206AFAE7D4E9012115F8010B97
:100E90009047761EF8D22046FFF7E4FABDE8F081CD
:100EA0004E414E006E616E00494E4600696E66000E
:100EB0002DE9F047814616468AB0354878440DC87A
:100EC0008DE80D0032487844801C03AC0DC884E8DE
:100ED0000D0041F69B300844372190FBF1F290FB66
:100EE000F1F5A5F1800501FB12041B3C02D564421B
:100EF000012000E00020DFF898A080460027FA4497
:100F0000AAF1BE0A0EE0E0070AD03246684607EBB7
:100F1000470101230AEB810100F046FB8DE8070041
:100F200064107F1C002CEED1194F7F44AE3F19E0B6
:100F3000E80715D007EB04100DF1180A90E80E0031
:100F40008AE80E00C068F04201D198190890324634
:100F5000012306A903A800F027FB03AB83E80700E1
:100F60006D10641C002DE3D14FF001033246694639
:100F7000B8F1000F03A802D000F001FB01E000F07F
:100F800013FBC9E90001C9F808200AB0BDE8F087E1
:100F900040670000004870476C1E00207546FFF750
:100FA000F9FFAE4605006946534620F00700854626
:100FB00018B020B5FFF79AF9BDE820404FF00006C1
:100FC0004FF000074FF000084FF0000B21F0070131
:100FD000AC46ACE8C009ACE8C009ACE8C009ACE874
:100FE000C0098D46704710B50446AFF30080204617
:100FF000BDE81040FFF765B94FF0013C50F8042BF5
:1010000051F8043B9A4221D1A2EB0C03934313EA1B
:10101000CC1317D150F8042B51F8043B9A4215D148
:10102000A2EB0C03934313EACC130BD150F8042B1F
:1010300051F8043B9A4209D1A2EB0C03934313EA03
:10104000CC13DBD04FF00000704700BFD01A01BABC
:10105000B1FA81F101F0180122FA01F0CB40C1F19F
:101060002001DBB2C0B2C01A2CFA01F3D11A9143AD
:1010700011EAC311E6D1704701491820ABBEFEE763
:101080002600020070475FEA400C08BF91F0000F95
:101090004FEA8C234FEAC12243EA51514FEA1C50D8
:1010A00018BF00F5F0404FEA300018BF41F0004192
:1010B0005FEA6C5C00F02980BCF1FF3F08BF40F0A4
:1010C00080407047130C06BF12044FF0100C4FF015
:1010D000000C130E04BF12020CF1080C130F04BF16
:1010E00012010CF1040C930F04BF92000CF1020CDE
:1010F000D30F04BF52000CF1010C11464FF0000257
:10110000A0F11F00A0EB0C00704711F0004F08BFCA
:10111000704731F000413FF4D5AF0B0C06BF090416
:101120004FF0100C4FF0000C0B0E04BF09020CF135
:10113000080C0B0F04BF09010CF1040C8B0F04BF4A
:1011400089000CF1020CCB0F04BF49000CF1010C1B
:10115000CCF12003A0EB0C0022FA03F302FA0CF20C
:1011600041EA030100F10100704720F07F4C80EA62
:10117000030023F07F47ACEB070303F57C5300F03B
:10118000004003F1FF032DE980494FEA154B09B4F4
:101190004FEA144325EA0B4E24EA03480FF20426D3
:1011A00006EB132749083E785FEA320203FB066725
:1011B000C7F5000707FB06F64FEA54374FEAD64655
:1011C00006F1020607FB066CCCF1005C4FEA1C47F7
:1011D0002CEA074C07FB06F40CFB06F504EB15465E
:1011E0004FEA961634BF00204FF000404FEAD13747
:1011F00006FB07FC4FEA1C4C0CFB0BF7D21B03FB56
:101200000CF761EB07010CFB0EF7B0EB074072EB3C
:1012100017420CFB08F734BFA2EB0742B2EB0742C0
:1012200061EB17414FEA0C444FEA910706FB07FCBC
:101230004FEA1C4C0CFB0BF7B0EBC74072EB57327C
:1012400003FB0CF734BFA2EBC742B2EBC74261EB22
:1012500057310CFB0EF7B0EBC70072EB57720CFB6B
:1012600008F734BFA2EBC702B2EBC70261EB5771BC
:10127000039F4FEA816141EA921104EBCC044FEAEB
:10128000D1374FEA826206FB07FC42EA90124FEA2E
:1012900080604FEA1C4C0CFB0BF7D21B03FB0CF7D6
:1012A00061EB07010CFB0EF7B0EB074072EB174246
:1012B0000CFB08F734BFA2EB0742B2EB074261EB2D
:1012C00017414FEA8C554FEA910704EB9C2406FB2B
:1012D00007FC4FEA1C4C0CFB0BF7B0EBC74072EB62
:1012E000573203FB0CF734BFA2EBC742B2EBC74245
:1012F00061EB57310CFB0EF7B0EBC70072EB577286
:101300000CFB08F734BFA2EBC702B2EBC70261EBDC
:10131000577115EB4C254FEA816141EA92114FEA72
:1013200082624FEAD13742EA901206FB07FC44F191
:1013300000044FEA80604FEA1C4C0CFB0BF7D21BF9
:1013400003FB0CF761EB07010CFB0EF7B0EB07405A
:1013500072EB17420CFB08F734BFA2EB0742B2EB6B
:10136000074261EB174115EB1C154FEA813141EA49
:1013700092414FEA823242EA90424FEA80304FEA8D
:101380000C7644F1000448EA03434EEA0B484FF060
:10139000000EB2EB080C71EB030724BF624639461E
:1013A0004EEB0E0E4FF0000B0018524149414BEB33
:1013B0000B0BB2EB080C71EB03077BF1000B24BFA6
:1013C000624639464EEB0E0E4FF0000B00185241AC
:1013D00049414BEB0B0BB2EB080C71EB03077BF1B4
:1013E000000B24BF624639464EEB0E0E51EA02074F
:1013F00018BF46F0010616EB0E7655F1000254F1C7
:10140000000103D5BDE88901BDE80088BDE8890178
:10141000BDE80048B619524141EB0101A3F10103B7
:10142000704780807F7E7D7C7B7A79787776767551
:101430007473727171706F6E6E6D6C6C6B6A6A69C9
:101440006868676666656464636362616160605F63
:101450005F5E5E5D5D5C5C5B5B5A5A5959585857DC
:101460005756565555555454535352525251515044
:1014700050504F4F4F4E4E4D4D4D4C4C4C4B4B4B97
:101480004A4A4A49494948484847474747464646DD
:101490004545454444444443434343424242424118
:1014A0004141002B9C4630D477002BD01CB54FEA2D
:1014B000370703B44FF010004FF01001BAF1000FDE
:1014C00006D0BCF1000FDCBF40F0080040F008017E
:1014D0004FF000000FBCBDE810400BF1010BBBF159
:1014E000010F08BF5FEA170722BF12F1010211F1D5
:1014F00001014FF0004143F1000300F0004043EAD6
:1015000000007047F9D35708D0E746EA064613F1C2
:10151000400F4FEA16461FDD13F1200FDFBF1643C1
:101520000A46002120335B42BED0C3F1200746EAC1
:10153000064602FA07F74FEA164646EA0706C3F1DF
:10154000200722FA03F201FA07F721FA03F14FF01C
:10155000000342EA0702A7E746EA020646EA064611
:101560004FEA164646EA0106BCBF46EA0646360C76
:101570004FF000034FF000024FF0000194E72DE917
:10158000804C9A46934670B491E8380007C831EA17
:10159000400C48BF34EA430C03D5FFF7E6FDFFF7E4
:1015A00080FFF0BCBDE8008C2DE9804C9A46934644
:1015B00070B491E8380007C810F0804F08BF13F0EE
:1015C000804F03D100F005F8FFF76BFFF0BCBDE8DA
:1015D000008C20F07F4780EA030023F07F4C07EB6C
:1015E0000C03A3F57C5300F00040A3F1FE0392F03E
:1015F000000F00F0B38095F0000F00F077802DE928
:1016000001494FEA11404FEA144621EA004800FB25
:1016100006FC24EA064708FB06F607FB08F800FB71
:1016200007F718EB06484CEB164C4FEA124B18EB39
:1016300007484FEA15464CEB174022EA0B4E0BFBCE
:1016400006FC25EA06470EFB06F607FB0EFE0BFB23
:1016500007F71EEB064E4CEB164C4FF000061EEB48
:10166000074E4CEB174B18EB0B0840F1000018EB42
:101670000E0B58EB000840F100008F1A4FF00001EC
:101680003CBFC943661B14BFB5EB040C00213CBF33
:10169000C943F61B4FEA17444EEA8E0E27EA04456B
:1016A0004FEA1C4704FB07622CEA074C05FB07F7CF
:1016B0000CFB05F604FB0CFC16EB074642EB17424D
:1016C00016EB0C4642EB1C421BEB060658EB0202E3
:1016D000414146EA9E0601D5BDE80189B61952414D
:1016E00041EB0101A3F10103BDE801894FEA144573
:1016F0004FEA114724EA054621EA074C05FB07F4A7
:1017000006FB07F70CFB06F105FB0CFC11EB074190
:1017100044EB17444FEA124711EB0C4144EB1C44D5
:1017200022EA074C05FB07F206FB07F70CFB06F65F
:1017300005FB0CFC16EB074642EB174216EB0C467A
:1017400042EB1C456A1854F1000148BF7047B619B6
:10175000524141EB0101A3F10103704795F0000FE5
:1017600037D04FEA11424FEA144721EA024624EAF1
:10177000074C02FB07F106FB07F70CFB06F402FB24
:101780000CFC14EB074441EB17414FEA154714EBEF
:101790000C4441EB1C4125EA074C02FB07F506FB14
:1017A00007F70CFB06F602FB0CFC16EB074645EBB5
:1017B000174516EB0C4645EB1C42121951F100017E
:1017C00048BF7047B619524141EB0101A3F1010333
:1017D00070474FEA14454FEA114724EA054621EACB
:1017E000074C05FB07F106FB07F70CFB06F24FF071
:1017F000000605FB0CFC12EB074241EB174112EB14
:101800000C4251EB1C4148BF7047921841EB01015B
:10181000A3F1010370470000464910B54A6822F45D
:1018200040324A604A6843681A434A6001684A681D
:1018300022F480724A6001684A68036942EA03221E
:101840004A6001684A6822F040724A6001684A684A
:1018500083681A434A6001688A6822F400628A60D9
:1018600001688A68C3681A438A60816A6FF070628F
:10187000D14201688A6822F070628A6001688A68D1
:101880000CD0836A1A438A6001688A6822F0405249
:101890008A6001688A68C36A1A4301E022F04052F4
:1018A0008A6001688A6822F002028A6001688A6898
:1018B000037E42EA43028A6090F820100029016802
:1018C0004A680FD042F400624A6001684A6822F414
:1018D00060424A6001684A68174C436A04EB43332C
:1018E0001A4301E022F400624A600168CA6A22F4E5
:1018F0007002CA620168CA6A838B104C04EB0353FE
:101900001A43CA6201688A6822F400728A60016818
:101910008A6890F8303042EA43228A6001688A6817
:1019200022F480628A6001688A68406942EA802005
:10193000886010BD0023014000E0FFFF0000F0FFC1
:10194000FEE7000030EEC00A0849DFED090A10EE9C
:10195000100A884202DD30EE600A704710EE100A6D
:1019600004498842F9D930EE200A70470000344318
:101970000000B443000034C370B52DED088B00F0B7
:1019800089FE5E4C0546E06E281A00EE100AB8EE9D
:10199000400ADFED5B0A5B4980EE209A19EE100ADF
:1019A000884201DD9FED589AE566B4F9160000EE15
:1019B000100AF8EEC00A9FED550AB4F9180060EE5F
:1019C000809A00EE900AB4F91A00F8EEE00A60EE90
:1019D000808A00EE900AF8EEE00A20EE808A29EE76
:1019E000A90A08EEA80A08EE080A04F04BFDF7EE73
:1019F000000A474930EE600AB0EEC00A10EE100A45
:101A00009FED44BA88421FDA607AC8B1206E281A66
:101A1000B0F57A7F1AD9B4F920009FED3F1A00EE95
:101A2000100AF8EEC00A80EE8B0AD4ED170A60EEB9
:101A3000810A9FED3A1A40EE010AC4ED170A05E04B
:101A400001206072256601E000206072F0EE480A15
:101A5000B0EE680A04F0B0F9DFED31BA20EE2B0ADF
:101A600010EE100A05F0FCFB9FED2EAB53EC1A2B89
:101A700005F04AFA05F016FA28EEA80A1F4D80353F
:101A800008EE080A286104F0FDFCF0EE400AB1EE11
:101A9000690A04F091F920EE2B0A10EE100A05F005
:101AA000DFFB53EC1A2B05F02FFA05F0FBF9686108
:101AB000B4F920009FED1D8A00EE100AB8EEC00AAE
:101AC000C0EE0B0A94ED170A70EEC00A94ED100AEE
:101AD00000EE890AF0EE480A84ED100A04F0B2FB29
:101AE000B5EEC00A84ED100AF1EE10FA03D230EE22
:101AF000080A84ED100ABDEC088B70BD00000020C0
:101B000000007A44CDCC4C3E0AD7233C000000397B
:101B1000CDCCCC3D0000834248E17A3F0AD7A33CBC
:101B200000003443182D4454FB2109400000B44305
:101B3000B4EEE00AF1EE10FA02D2B0EE600A70479D
:101B4000B4EEC10AF1EE10FAF9DDB0EE410A7047C9
:101B500070B51D4613460446802D01D9002070BD86
:101B6000AA20207055206070A170A4F803502DB1F8
:101B700023B12A461946601DFEF7D1FDE91CA01CC1
:101B800089B200F005F8A4F88500ED1DA8B270BD7B
:101B9000F0B505464FF6FF742046002241F22106BB
:101BA00011E0AB5C80EA03200023070403D586EA3A
:101BB000400080B201E004EA40005B1CDBB2082B6D
:101BC000F3D3521C92B28A42EBD3F0BD10B5044657
:101BD0009021FEF71BFE0020207010BDF0B5A1B0D3
:101BE0001F4615460446037800200622269E082B31
:101BF0002FD2DFE803F004080C0F12243135AA2994
:101C000027D1012019E0552917D1022015E0617074
:101C1000032012E0618004200FE0638843EA012181
:101C20006180802906D92070D4F88800401CC4F84F
:101C300088000EE0A08059B10520207009E0A0883E
:101C4000A51D431CA3804155A0886188884200D30C
:101C50002270002021B0F0BDA4F886100720ECE728
:101C6000B4F8862042EA0121A4F88610207060783A
:101C70008DF80000A0788DF801006088A11D000A91
:101C80008DF8020062880DF10300FEF748FD6088C0
:101C9000C01C81B26846FFF77BFFB4F88610814212
:101CA0000FD1607828706288A11D3846FEF737FD95
:101CB00060883080D4F88C00401CC4F88C0001206F
:101CC000C8E754F8880F401C20604FF0FF30C1E790
:101CD00013B5A2B00446012323AA80216846FFF76A
:101CE00037FF020004D064236946204602F047F91A
:101CF00024B010BD10B5A2B004460A461C23122120
:101D00006846FFF725FF020004D064236946204699
:101D100002F035F922B010BD10B5A2B004460A4653
:101D2000182311216846FFF713FF020004D0642333
:101D30006946204602F023F922B010BD70B52D4B44
:101D40002B4A4FF4967493ED121AD3ED131A1568BB
:101D5000FCEEC10ABCEEE10A0023052821D2DFE82F
:101D600000F0030921393F006B631068836310683A
:101D7000C36314E06B63B5EEC01AF1EE10FA02DD36
:101D800010EE900A00E008461468A063F5EEC01A51
:101D9000F1EE10FA01DD10EE101A1068C163106840
:101DA000036470BDB5EEC01AF1EE10FA02DD10EE5C
:101DB000900A00E008466863106883631068C36394
:101DC000F5EEC01AF1EE10FA01DD10EE101A1068EF
:101DD000016470BD6C63106883631068C463DEE7E0
:101DE0006B63106884631068C3631068046470BD1B
:101DF000801B002000000020014800F0D3B9000043
:101E0000601D0020014800F0CDB90000A01C00209A
:101E1000014800F0C7B90000C01D0020014800F0D3
:101E2000C1B90000001D002001681823CAB2103A91
:101E3000B2FBF3F2054B6FF30901032A9B5CC36508
:101E400000D9091D81650846704700000875000823
:101E500010B5014600208B698A6A4FF0C07453B1F7
:101E6000B3F5005F15D072B1012A0CD0022A0AD056
:101E7000032A09D104E01AB1012A06D0022A03D1AB
:101E8000C96AC90100D5012010BDC96AA142FAD0B2
:101E900010BD002AF7D0012AF2D0022AF3D0032A7B
:101EA000F3D010BD30B50468256825F48025256081
:101EB000046863608368402B036803D099600068FE
:101EC000C26030BD9A600068C16030BD704772B6B4
:101ED000FEE7000078B50024009490F83C20012A29
:101EE00019D0012280F83C200A6807230568092AD6
:101EF00013D9EE680A3A02EB420293409E43EE6029
:101F00000B788A680A3B03EB43039A400368DD6859
:101F10002A43DA6010E0022078BD2E6902EB42020B
:101F200093409E432E610B788A6803EB43039A40EB
:101F300003681D692A431A614A681F23072A13D2BE
:101F400005686E6B521E02EB820293409E436E63E5
:101F50000A8893B20A79521E02EB82029340026809
:101F6000556B2B43536327E005680D2A12D22E6B65
:101F7000D21F02EB820293409E432E630B790A88A4
:101F8000DB1F92B203EB83039A4003681D6B2A4365
:101F90001A6311E0EE6A0D3A02EB820293409E430F
:101FA000EE620B790A880D3B92B203EB83039A40F1
:101FB0000368DD6A2A43DA621B4B0568194A9D42B1
:101FC0000AD10D68122D07D1556825F4000555601A
:101FD000556845F48005556005689D421DD1134D37
:101FE0000B68AB4201D0112B17D1536823F4800347
:101FF0005360536843F4000353600968A9420CD14D
:102000000B490C4A0968B1FBF2F101EB810149006F
:1020100000E0491E00910029FBD180F83C400020DF
:1020200078BD000000230140002001401200001094
:102030002C01002040420F0070B504004FF0000555
:1020400003D0206C002610B107E0012070BD2046AF
:1020500000F01CF8666484F83C60206CC00610D464
:10206000206C20F4885040F0020020642046FFF7E6
:10207000D3FB6664206C20F0020040F00100206475
:1020800000E0012584F83C60284670BD10B586B09C
:10209000044614216846FEF7B9FB114920688842BE
:1020A0001CD110480021026842F48072026000686E
:1020B00000F4807005900B481438026842F0010269
:1020C0000260006800F001000590042000900320E9
:1020D000CDE901016946044800F0E8F906B010BDF9
:1020E0000020014044380240000002402DE9F04148
:1020F0000446876D00F0CEFA064694F835000025B8
:10210000022806D08020606584F834500120BDE8A4
:10211000F0812068016821F01601016020684169A2
:1021200021F080014161206C08B9A06C20B12068C9
:10213000016821F0080101602068016821F00101B7
:1021400001600CE000F0A6FA801B052807D92020CA
:102150006065032084F8350084F83450D7E72068A0
:102160000068C007EED194F85C103F208840B8604A
:10217000012084F8350084F834500020C7E790F837
:102180003510022903D080214165012070470521C7
:1021900080F835100068016821F00101016000201D
:1021A000704700002DE9F84304464FF00009CDF8D0
:1021B000009063484FF41651A56D0068B0FBF1F72D
:1021C0002E6894F85C10082000FA01F131420FD01B
:1021D00021680A6852070BD50A6822F004020A60D7
:1021E00094F85C108840A860606D40F00100606564
:1021F00094F85C104FF0010808FA01F0304208D062
:1022000021684969090604D5A860606D40F00200A4
:10221000606594F85C1004208840304208D0216842
:102220000968890704D5A860606D40F00400606506
:1022300094F85C1010208840304218D0216809685A
:10224000090714D5A86020680168490304D500680F
:10225000000308D5A16C07E00168C90503D4016833
:1022600021F008010160216C09B12046884794F8EB
:102270005C1020208840304231D021680968C906AE
:102280002DD5A86094F8350005282068016806D08F
:10229000490347D5006800031DD4616C1CE021F0A0
:1022A000160101602068416921F080014161206CC4
:1022B00008B9A06C20B12068016821F00801016014
:1022C00094F85C103F208840A86084F8358084F83A
:1022D0003490216D1FE0E16B09B120468847606DA5
:1022E00000282BD0606DC00714D0052084F835007D
:1022F0002068016821F0010101600098401C0090F5
:10230000B84203D820680068C007F6D184F8358049
:1023100084F83490E16C002910D001B02046BDE86B
:10232000F04308470168C905D5D4016821F01001C0
:10233000016084F8358084F83490CCE7BDE8F883F8
:102340002C0100202DE9F041044600F0A3F90646D7
:102350005CB1022084F83500002584F834502068F0
:10236000016821F0010101600DE00120BDE8F0816C
:1023700000F090F9801B052805D920206065032016
:1023800084F83500F2E720680068C007F0D12268C1
:10239000116820480140D4E901031843D4E9033609
:1023A0003343184363691843A3691843E369184327
:1023B000236A18430843616A042903D1D4E90B1343
:1023C00019430843106020684069666A20F00701DD
:1023D00030460E43012704280CD1A06A0643E06A68
:1023E00040B12046FFF734FD20B14020606584F8FD
:1023F0003570BAE7206846612046FFF715FD94F86E
:102400005C203F2191408160656584F83570002033
:10241000ACE700003F8010F02DE9F0410446866DE6
:1024200090F83400002501280DD0012084F83400F4
:1024300094F835700020012F07D084F8340002256D
:102440002846BDE8F0810220FBE7022784F83570BA
:1024500060652046FFF726FD94F85C103F20884019
:10246000B0602068016841F016010160206C20B165
:102470002068016841F0080101602068016841F0AE
:1024800001010160DCE7000070B5044600F002F9CC
:102490000546601C02D004480078044400F0FAF8B5
:1024A000401BA042FAD370BD200100202DE9F84F57
:1024B000DFF8ACA10022012403254FF00F090AF137
:1024C000040BAAF1040E00BF0B6804FA02F63340B5
:1024D000B3426ED10F7907F00307012F01D0022F0D
:1024E00016D187684FEA420805FA08FC27EA0C076C
:1024F000D1F80CC00CFA08FC4CEA070CC0F808C074
:102500004768B7430E79C6F3001696403E434660CF
:102510000E79F643B6070AD0C6684FEA420C05FAB0
:102520000CF7BE438F6807FA0CF73743C7600E7984
:1025300006F00306022E10D1D60800EB8608D8F864
:10254000206057074FEAD76C09FA0CF7BE430F69B2
:1025500007FA0CF73743C8F8207006684FEA420CB8
:1025600005FA0CF7BE430F7907F0030707FA0CF7DB
:10257000374307604E6816F4403F6BD0394E3768DA
:1025800047F480473760366822F0030706F4804638
:102590000096354E07EB060CDCF8086897074FEA03
:1025A000177809FA08F7BE43304FB84202D1002726
:1025B0001FE04FE02E4FB84201D1012719E02D4F07
:1025C000B84201D1022714E02B4FB84201D10327B2
:1025D0000FE02A4FB84201D104270AE0284FB84241
:1025E00001D1052705E0274FB84201D1062700E0B9
:1025F000072707FA08F73743CCF80878DAF80060BD
:102600005746D1F804C09E435FEACC2C00D51E4348
:102610003E60DBF800605F46D1F804C09E435FEA8D
:102620008C2C00D51E433E60DEF800607746D1F862
:1026300004C09E435FEA8C3C00D51E433E60084FB9
:10264000083F3E68D1F804C09E435FEACC3C00D509
:102650001E433E60521C102AFFF436AFBDE8F88FCF
:10266000083C014044380240003001400000024074
:102670000004024000080240000C0240001002402A
:1026800000140240001802400AB181617047090439
:10269000FBE700000148806870470000200100202F
:1026A00070B5040025D094F83D00002520B984F8C9
:1026B0003C50204600F052FA242084F83D00206867
:1026C000016821F0010101602068016841F40041C6
:1026D00001602068016821F40041016000F0E2FB24
:1026E0004D4A6168914201D84C4900E04C4988420A
:1026F00001D2012070BD4B492368B0FBF1F15E6847
:1027000026F03F060E435E606368934206D94FF49D
:10271000967359434FF47A73B1FBF3F12368491C64
:102720001E6A26F03F06314319626168914210D853
:102730004900401EB0FBF1F2521CC2F30B02042A06
:1027400001D2042022E0B0FBF1F0401CC0F30B00EA
:102750001CE0A268F2B301EBC10303EB0116431EB8
:10276000B3FBF6F35B1C43F480431B0549D092B3E3
:1027700001EBC10202EB0111401EB0FBF1F0401C65
:10278000C0F30B0040F4804040F400402168CA6967
:102790004CF6FF739A431043C861D4E90710014314
:1027A0002068026822F0C00211430160D4E90301ED
:1027B00001432068826848F2FF339A4311438160E5
:1027C000D4E9050108432168CA6822F0FF021043DA
:1027D000C86001E00EE016E02068016841F00101E8
:1027E00001602564202084F83D00256384F83E5074
:1027F000002070BD01EB4106431EB3FBF6F35B1CEA
:10280000B3E70120C2E701EB4101401EB0FBF1F04C
:10281000401CC0F30B00B7E7A086010080841E00B7
:1028200000093D0040420F002DE9FF4F83B09A465A
:10283000DDE9118793460446DDF84090FFF72AFF53
:10284000054694F83D00202870D1192301227449CF
:102850002046009501F0F4FD0028F5D194F83C00E5
:10286000012863D0012084F83C0020680168C90772
:1028700003D1016841F0010101602068016821F481
:1028800000610160222084F83D00402084F83E0071
:1028900000262664C4F82490A4F82A80608D208540
:1028A0006048E062CDE9007553465A4620460499D7
:1028B00001F0C8FC002879D1208DD0B1012821D0A9
:1028C0000228206824D0416980690090208D032867
:1028D00066D801282BD0544902283B464FF000020D
:1028E000009557D08846204601F0AAFD00285DD10A
:1028F0003AE02068416981690091016841F4007102
:1029000001607DE02068016821F480610160F0E7EA
:10291000016821F4806101602068016841F4006170
:102920000160206841698069009069E075E02A468D
:102930003946204601F02AFE88BB54E02068016831
:1029400041F40071016020680069616A0870606A82
:10295000401C6062218D491E2185618D491E618563
:1029600021680969017042E02068016821F48061F2
:10297000016020680069616A0870606A401C6062DA
:10298000208D401E2085608D401E60853B460022C4
:1029900041460095204601F053FD00B9CEE705E021
:1029A0002A463946204601F0F1FD18B1012007B052
:1029B000BDE8F08F20680069616A0870606A401C99
:1029C0006062208D401E81B22185608D401E608531
:1029D00020684269D243520712D4032903D1016807
:1029E00021F48061016020680069616A0870606A92
:1029F000401C6062208D401E2085608D401E6085D9
:102A0000208D00287FF462AF202084F83D0084F8F8
:102A10003E6084F83C600020C9E70220C7E7000060
:102A2000020010000000FFFF040001002DE9FF4F2D
:102A300083B09A46DDE9119793460446DDF840805D
:102A4000FFF728FE054694F83D0020287FD1192382
:102A5000012240492046009501F0F2FC002876D181
:102A600094F83C00012872D0012084F83C002068D2
:102A70000168C90703D1016841F0010101602068C4
:102A8000016821F400610160212084F83D004020AC
:102A900084F83E0000262664C4F82480A4F82A9016
:102AA000608D20852C48E062CDE9007553465A467A
:102AB0002046049901F044FC70B930E02A463946BA
:102AC000204601F09BFD58B1206C042804D12068F9
:102AD000016841F400710160012007B0BDE8F08F8A
:102AE000606A216800780861606A401C6062218D1C
:102AF000491E89B22185628D521E62852268536902
:102B0000DB435B070BD469B100781061606A401C3D
:102B10006062208D401E2085608D401E6085208D66
:102B20000028CBD12A463946204601F05DFC00281A
:102B3000CAD154F83D0B016841F4007101602020B6
:102B400004F81E09E67766770020C6E7FFE7022053
:102B5000C3E70000020010000000FFFF10B586B0C0
:102B6000044614216846FDF751FE14492068884246
:102B700021D113480021026842F00202026000687D
:102B800000F0020005904FF4407000901220CDE953
:102B90000101032003900420049069460948FFF7CF
:102BA00085FC07481030016841F40011016000689D
:102BB00000F40010059006B010BD00000054004065
:102BC0003038024000040240024881680278114413
:102BD00081607047200100200B4810B5016841F466
:102BE00000710160016841F480610160016841F495
:102BF00080710160032000F071F8002000F006F8F9
:102C000000F024F8002010BD003C024070B50D4DCE
:102C100004464FF47A712878B1FBF0F00A4909684C
:102C2000B1FBF0F000F074FB48B9102C07D2002281
:102C30002146501E00F032F800206C6070BD01206B
:102C400070BD0000200100202C0100200B4882B044
:102C5000016841F480410160006800F48040009008
:102C60000648001F016841F080510160006800F0D3
:102C700080500090072002B000F030B84438024085
:102C8000002809DB00F01F0201219140400980006B
:102C900000F1E020C0F8001170470000F0B40E4BC6
:102CA0001B680C46C3F30223C3F10705042D00D9AA
:102CB0000425191D072901D2002300E0DB1E01268F
:102CC00006FA05F1491E214099409E40761E1640A5
:102CD0003143F0BC03F060B80CED00E0064900F0B1
:102CE000070208684FF6FF03184040EA0220034A33
:102CF00010430860704700000CED00E00000FA058A
:102D00002DE9F8431748016841F0805101600068DF
:102D1000154F00F08050012600903E64FFF7BAFC8A
:102D200005464FF47A78114C05E000BFFFF7B2FC7E
:102D3000401B40450DD86068C003F7D57E64FFF79F
:102D4000A9FC0546464607E0FFF7A4FC401BB0423D
:102D500002D90320BDE8F88360688003F4D5002021
:102D6000F8E700004038024000000E4200700040CA
:102D70002DE9F0470E46050065D0DFF81481D8F83C
:102D80000000F7B200F00F00B04207D288F80070E0
:102D9000D8F8000000F00F00B04254D128683D4C34
:102DA000810712D5400703D5206840F4E050206029
:102DB0002878000703D5206840F460402060206830
:102DC000A96820F0F000084320602878C0072DD0C3
:102DD000304968680839012812D0022813D0032826
:102DE00011D00968890700292DDA216821F0030133
:102DF00001432160FFF74EFC814641F2883A0EE024
:102E000009688903EFE709688901ECE7FFF742FCED
:102E1000A0EB0901514502D90320BDE8F0872068E5
:102E2000696800F00C00B0EB810FEFD1D8F800100A
:102E3000404601F00F01B14207D90770006800F069
:102E40000F00B04201D00120E7E72878400705D500
:102E50002068E96820F4E0500843206028780007E3
:102E600006D52068296920F4604040EAC10020604E
:102E700000F038F82168084AC1F30311515CC840DA
:102E80000649086006480068FFF7C0FE0020C4E756
:102E9000003C024008380240107500082C01002058
:102EA000240100200448054900680968044AC1F368
:102EB0008221515CC84070472C0100200838024034
:102EC000207500080448054900680968044AC1F3F0
:102ED0004231515CC84070472C0100200838024044
:102EE00020750008224810B5006810F00C02214837
:102EF00015D04110042A11D01D4C241F082A0FD0D0
:102F00000C2A0CD12268236802F03F025B0221D513
:102F10002068C0F38810A0FB010120E0084610BD26
:102F20002268236802F03F025B0205D52068C0F3E7
:102F30008810A0FB010104E02168C1F38811A1FB06
:102F400000010023FDF7E4F92168C1F30141491CA8
:102F500049000AE02168C1F38811A1FB00010023A8
:102F6000FDF7D6F92168C1F30271B0FBF1F010BD95
:102F7000083802400024F4002DE9F84F04007DD009
:102F8000DFF878B32078ABF10407C007A7F1040598
:102F900050D0DBF800105846C1F3810101290FD051
:102FA0000168C1F38101022902D13968490207D4BD
:102FB0000068C0F38100032809D13868400206D5B3
:102FC0002868800336D560680028D8D032E0606871
:102FD000B0F5803F10D0B0F5A02F286810D020F4B5
:102FE00080302860286820F4802028606068A0B1C4
:102FF000FFF750FB06460CE0286840F48030F4E709
:1030000040F480202860F7E7FFF744FB801B64282A
:1030100076D828688003F7D50CE0FFF73BFB06461F
:1030200005E000BFFFF736FB801B6428F0D8286856
:103030008003F7D42078DFF8C89280074FF0000AA9
:1030400044D5DBF80010584611F00C0F0FD0016882
:10305000C1F38101022902D13968490207D500680C
:10306000C0F3810003280AD13868400207D42868D9
:10307000800715D5E068012800D111E03AE1E06849
:10308000B0B10120C9F80000FFF704FB064604E0D8
:10309000FFF700FB801B0228BAD828688007F7D505
:1030A0002868216920F0F80040EAC10028600DE09E
:1030B000C9F800A0FFF7EEFA064604E0FFF7EAFAC7
:1030C000801B02281CD828688007F7D420780007C6
:1030D00027D5DFF828828B48616908F16C0881B137
:1030E00001210160FFF7D6FA064604E0FFF7D2FAA5
:1030F000801B022804D8D8F800008007F6D510E01D
:1031000089E0C0F800A0FFF7C5FA064605E000BF59
:10311000FFF7C0FA801B02287DD8D8F8000080078E
:10312000F6D42078400769D574484FF0000838304D
:103130000068C0000BD471483830016841F08051FC
:10314000016000684FF0010800F0805000906E4E62
:103150003068C00511D4306840F480703060FFF7EB
:1031600099FA009006E000BFFFF794FA0099401A20
:10317000022850D83068C005F6D5604EA068683681
:1031800001280FD00528306810D020F001003060F1
:10319000306820F004003060A068B8B1FFF77AFA18
:1031A00000900FE0306840F00100F4E740F00400C8
:1031B0003060F7E7FFF76EFA0099411A41F2883064
:1031C000814264D830688007F4D50EE0FFF762FAD8
:1031D000009007E0FFF75EFA0099411A41F288304B
:1031E000814254D830688007F4D4B8F1000F05D07C
:1031F00042483830016821F080510160A069A8B3CD
:10320000DBF80010C1F38101022947D00228C9F878
:1032100060A005D000E03AE0FFF73CFA044639E050
:10322000FFF738FA064604E0FFF734FA801B02285D
:103230002DD828688001F7D4F4E907010843E16834
:10324000324A490802EB0141A26841EA821108436F
:10325000217C40EA0160217D40EA01703860012054
:10326000C9F86000FFF716FA044606E044E000BF24
:10327000FFF710FA001B022809D828688001F7D54B
:103280003AE000BFFFF706FA001B022802D903202C
:10329000BDE8F88F28688001F4D42DE00128F7D02C
:1032A0003868E26900F48001914223D1226A00F07B
:1032B0003F0191421ED147F6C071626A0140B1EBF5
:1032C000821F17D1A26A4FF0FF3300F4403103EBA5
:1032D0005202B1EB024F0DD194F82C2000F0706136
:1032E000B1EB026F06D194F8301000F0E040B0EB83
:1032F000017F01D00120CBE70020C9E70838024058
:1033000000004742800E4742007000400000FFFF6F
:1033100010B5401EB0F1807F01D3012010BD4FF0E9
:10332000E02460610F21601702F036FD0020A061EB
:1033300007202061002010BD70B590F83C20012AC4
:1033400032D0012480F83C40022280F83D200368FE
:103350005A689D6822F070060A6832435A60134B1F
:1033600002689A4214D0B2F1804F11D0104B9A42A9
:103370000ED0104B9A420BD00F4B9A4208D00F4BF5
:103380009A4205D00E4B9A4202D00E4B9A4204D17B
:10339000496825F080031943916080F83D40002181
:1033A00080F83C10084670BD022070BD000001404E
:1033B0000004004000080040000C004000040140F0
:1033C00000400140001800402DE9F0410D46040086
:1033D00003D094F83D0018B108E00120BDE8F08169
:1033E000002084F83C00204600F040F8022084F8D9
:1033F0003D002068816844F2070291438160211DED
:10340000206802F0EBF8226890689169166A2B68D0
:10341000AF69034340F20330814341EA0721A868C2
:10342000EF6908434FF6FC418843E96840EA07200A
:10343000014328692F6A000140EA073008436968A0
:103440006D6926F0AA0646EA0515294393602268AD
:10345000906154F8460B0162012004F81F09E075E1
:103460002076E0762077A0750020B7E730B587B0EA
:10347000044614216846FDF7C9F922482468002251
:10348000204910380223B4F1804F1FD01E4DAC42AA
:103490001AD10C6844F004040C60096801F00401BE
:1034A0000591016841F0020101600068694600F081
:1034B00002000590C0200090CDE901321348CDE90B
:1034C000032300BFFEF7F2FF07B030BD0C6844F0E5
:1034D00001040C60096801F001010591016841F0E7
:1034E000010101600068694600F00100059048F2A2
:1034F00002000090CDE901320120CDE9032004480B
:10350000E0E70000403802400008004000040240AC
:103510000000024070B590F83E60044690F83F50BD
:1035200090F8423090F84320022021B104290ED0B7
:10353000012E1BD114E0012E18D1012B16D184F8D5
:103540003E0084F8420001220021206820E0012D85
:103550000CD1012A0AD184F83F0084F8430014E01A
:10356000012D03D1012B01D1012A01D0012070BD11
:1035700084F83E0084F83F0084F8420084F8430059
:1035800001220021206802F091F801220421206824
:1035900002F08CF82068016841F001010160002010
:1035A00070BD000030B587B0044614216846FDF7B1
:1035B0002DF916492068884226D115480024016853
:1035C00041F001010160016801F00101059101680C
:1035D00041F0020101600068022500F00200059040
:1035E000C0200090CDE9015469460A48CDE9034561
:1035F000FEF75CFF03200090CDE9015469460648C0
:10360000CDE90345FEF752FF07B030BD000400408E
:1036100030380240000002400004024070B5044609
:1036200090F83C0000260D4601280FD0012084F8B8
:103630003C006AB1042A1DD0082A2FD00C2A3FD0A2
:103640000126002084F83C00304670BD022070BD89
:10365000206802F039F82068816941F00801816131
:103660002068816921F004018161206881692A69EB
:10367000114311E0206802F057F82068816941F495
:10368000006181612068816921F480618161206825
:1036900081692A6941EA02218161D2E7206802F04A
:1036A00079F82068C16941F00801C1612068C169E9
:1036B00021F00401C1612068C1692A69114311E048
:1036C000206802F09BF82068C16941F40061C16183
:1036D0002068C16921F48061C1612068C1692A69DB
:1036E00041EA0221C161ACE710B5040003D094F8AF
:1036F0003D0010B107E0012010BD002084F83C001F
:10370000204600F01FF8022084F83D00211D2068AB
:1037100001F064FF012084F8460084F83E0084F83C
:103720003F0084F8400084F8410084F8420084F8A7
:10373000430084F8440084F8450084F83D000020EC
:1037400010BD000008B500680649884208D1064847
:10375000016841F002010160006800F00200009081
:1037600008BD0000000400404038024010B5044687
:10377000022249B104290ED0082913D094F841003F
:10378000012816D0012010BD94F83E000128F9D17F
:1037900084F83E200FE094F83F000128F2D184F82D
:1037A0003F2008E094F840000128EBD184F8402045
:1037B00001E084F841200122206801F077FF1649DA
:1037C0002068164A884201D0904203D1436C43F4EA
:1037D000004343642068884213D0B0F1804F10D07A
:1037E0000F4988420DD00F4988420AD00E498842BD
:1037F00007D0904205D00D49884202D00C4988423A
:1038000004D1816801F00701062903D0016841F065
:1038100001010160002010BD0000014000040140D2
:103820000004004000080040000C0040004001403F
:103830000018004070477047F8B5016804460868F2
:10384000CA684B6910F00F0F4FF0000559D003F014
:10385000010602F49077374365D0C10705D0D10542
:1038600003D5616C41F001016164410705D5D907B9
:1038700003D0616C41F002016164810705D5D9076D
:1038800003D0616C41F004016164010707D502F0C7
:103890002001314303D0616C41F008016164616C27
:1038A00000293AD0800604D5900602D5204602F0C1
:1038B00080F820684069616CC0F38010090700D46B
:1038C00060B3204602F040F820684069400621D5E8
:1038D0002068143050E8001F21F0400140E8001239
:1038E000002AF5D1E06BA8B172490165E06BFEF7E3
:1038F00046FC002811D0E06B016D01B0BDE8F0403E
:10390000084783060FD593060DD52046BDE8F8403D
:1039100002F04FB82046FFF78EFFF8BD2046FFF7B4
:103920008AFF6564F8BD266B2023012E7ED1C60672
:103930007CD5D6067AD508684868009048694FF06B
:10394000020640064DD5E26B106840684FF4807760
:103950000004000C3AD0A18D814237D9E085D069AE
:10396000B8422DD020680C3050E8001F21F480713F
:1039700040E80012002AF5D12068143050E8001FFA
:1039800021F0010140E80012002AF5D1206814302E
:1039900050E8001F21F0400140E80012002AF5D154
:1039A00084F84230256320680C3050E8001F21F075
:1039B000100140E80012002AF5D1E06BFEF796FBFB
:1039C0006663A08DE18D401A81B206E0A18D81422F
:1039D000A8D1D069B842A5D166632046FFF72AFF77
:1039E000F8BDA08DE18D401A81B2E08D0028F7D09E
:1039F0000029F5D020680C3050E8002F22F4907296
:103A000040E80027002FF5D12068143050E8002F3F
:103A100022F0010240E80027002FF5D184F842305F
:103A2000256320680C3050E8002F00E006E022F00B
:103A3000100240E80023002BF3D1CDE705062BD57B
:103A4000150629D594F841002128C9D1A068B0F500
:103A5000805F01D12069B0B1206A411C21622168D8
:103A600000784860E08C401E0004000CE084B7D170
:103A70002068C16821F08001C1602068C16841F000
:103A80004001C160F8BD206A0088C0F308004860AA
:103A9000206A801C2062E5E74006F3D55006F1D588
:103AA000CA68204622F04002CA6084F8413000F023
:103AB000B6FAF8BD4D58000870B5040004D094F86B
:103AC0004100002510B106E0012070BD84F840508F
:103AD000204600F023F8242084F841002068C168C3
:103AE00021F40051C160204601F0C4FF2068016943
:103AF00021F4904101612068416921F02A0141616E
:103B00002068C16841F40051C1606564202084F8D8
:103B1000410084F842006563002070BD2DE9F04348
:103B200087B0044614216846FCF770FE5548DFF85C
:103B300050C1143827685349022203230025061573
:103B40004FF0400967454FD10F6847F010070F60ED
:103B5000096801F010010591016841F0010101605F
:103B60000068694600F00100059058028DE82500C4
:103B70000720CDE903304448FEF798FC444F434802
:103B80004FF000683860C7E90185C7E903567D61D9
:103B9000BD61FD613D6238467D62FEF7D3FB08B131
:103BA000FEF795F9E763BC63394F384860377830E2
:103BB000C7E903567D61BD61FD613D627D6287E8B5
:103BC00001033846FEF7BEFB08B1FEF780F9A76394
:103BD000002211462520BC63FFF760F82520FFF77F
:103BE0004FF807B0BDE8F083DFF8A8C06745F8D10B
:103BF0000F6847F020070F60096801F02001059168
:103C0000016841F0040101600068694600F00400A9
:103C10000590C0208DE825000820CDE903301E481E
:103C2000FEF744FC1A4F1948C037183838604FF077
:103C30002068C7E90185C7E903567D61BD61FD6163
:103C40003D6238467D62FEF77DFB08B1FEF73FF925
:103C5000E763BC63114F0D48C7E903567D61BD6141
:103C6000FD613D6260307D6287E801033846FEF702
:103C700069FB08B1FEF72BF9A763BC63B1E700004D
:103C800000100140443802400000024040640240FD
:103C9000A01C00200014014000080240C01D0020AC
:103CA00090F84230202B01D00220704721B11AB188
:103CB0000023036301F064BF0120704790F8423095
:103CC000202B01D00220704721B11AB100230363D9
:103CD00001F0A6BF012070472DE9F043894A012178
:103CE0002DED028BC1B0884C90427DD1E07800B9B7
:103CF000E170864801F0C8FB40A8009006AB3FAADF
:103D0000A04621788248FDF769FF4FF0000901289D
:103D100061D19DF8FC00012802D0022830D05AE081
:103D2000DDF8220000EE100ADFED7A0A20EE200A0C
:103D300010EE100A03F094FA9FED771B53EC112B51
:103D400003F0E2F803F0AEF801EE100ADDF81E0011
:103D500000EE900ADDF81A0000EE100A6C484C38AC
:103D600001F054F96A4801214C3801F0F1F80121C1
:103D70006448FDF7ADFF88F8079088F801902AE0C5
:103D800006A9634891EC030A203800F0BBFF02212A
:103D90005C48FDF79DFF089803F062FA04460D4663
:103DA000079803F05DFA06460F46069803F058FAA6
:103DB0000A468DE8C5005A4A642126A8CDE9044583
:103DC000FCF71EFB26A8FCF78BFC82B2642326A915
:103DD0004C4800F0D4F898F80000444630380728E2
:103DE00071D800214A4800E07CE04C3801F0B0F87E
:103DF00020783038C0B260709FED4A0A4FF4967256
:103E000005280BD0062809D0494684F807900528D4
:103E100056D2DFE800F04A4D4D626200E07194ED49
:103E2000108A84ED148A84ED160A9FED3F0A84F807
:103E30000890DFED3E0A0528B0EE481A29D031EE91
:103E4000400A84ED150AB5EEC00AF1EE10FA03D26D
:103E500030EE200A84ED150A626210EE100AA262AA
:103E600003F0FEF904460D4618EE100A03F0F8F9C7
:103E70008DE833002EA23C2126A8FCF7C1FA26A823
:103E8000FCF72EFC82B2642326A91E4800F077F8C6
:103E900019E031EE000A354910EE100A84ED150ADA
:103EA0008842D9DB30EE600AD4E7A162616205E0A6
:103EB0004FF4C871A1629FED2E0A616284ED110A70
:103EC000616AFDF73BFF01220F490E48FFF7F6FE3E
:103ED00041B0BDEC028BBDE8F083A262B3EE0E0AE6
:103EE0006262EBE7234A9042F2D1617141B04FF434
:103EF0008072BDEC028B2049BDE8F0431D48FFF7FE
:103F0000CFBE0000101C002000000020B0170020D1
:103F10000C1A002000003443182D4454FB210940A2
:103F2000C0760008000000000000A0420000B4437A
:103F30004175746F207475726E207374617274654C
:103F4000642E2053746172743A252E3166EFBFBD22
:103F5000EFBFBD2C205461726765743A252E31661F
:103F6000EFBFBDEFBFBD0D0A000000000000B4436D
:103F700000007042581C0020C018002070472DE936
:103F8000F843044690F84100984616460D4620280E
:103F900002D00220BDE8F88385B17EB100206064C4
:103FA000212084F84100FEF775FBA6848146E68453
:103FB000A0682027B0F5805F02D003E00120E9E788
:103FC000206910B12E4600250EE000260CE080216D
:103FD000204601F040FEA8B9C6B116F8010B2168D1
:103FE0004860E08C401EE084E08C4B464FF00002BD
:103FF000CDF800800028EAD14FF04001204601F0C2
:104000002AFE40B184F841700320C3E735F8020B63
:10401000C0F30800E3E784F841700020BAE7704776
:1040200030B55A4C91B0D4ED150A94ED100AFDF755
:1040300089FCB0EE402A94ED160AF0EEC20A002583
:1040400022EE000AB5EEC00AF1EE10FA2ED210EE02
:10405000900A4F49884229DD207A401CC0B2207264
:10406000022824D900210846FDF768FEE571257273
:1040700094ED170ADFED470A02EE200A84ED170AD5
:1040800010EE100A03F0ECF8CDE9000142A23C2149
:1040900002A8FCF7B5F902A8FCF722FB82B2642360
:1040A00002A94A48FFF76BFF11B030BD257210EE30
:1040B000900A474984ED162A88421EDC00210846F2
:1040C000FDF73CFEE571B4F9200000EE100AF8EEB1
:1040D000C00A9FED401A6423162280EE810AD4EDB7
:1040E000170A9FED3D1A3EA160EE810A9FED3B1A33
:1040F00040EE010AC4ED170A42E010EE900A3E4974
:10410000B7EE000A884209DA9FED3C0A80EE801A79
:10411000DFED3B0A9FED3B0A01EE200ADFED3A0A94
:1041200020EE200ABCEEC00A10EE101A782900D248
:104130007821E2793548052A02D0062A09D010E014
:1041400002685163026895630268D1630068056480
:1041500007E002685563026891630268D5630068EE
:104160000164FEF797FA616E401AC8289CD9FEF7E1
:1041700091FA60662648FCF7B3FA254982B26423B7
:1041800011B01248BDE83040FFF7F9BE0000002032
:104190000000F0410AD7233C4175746F207475729A
:1041A0006E206F76657273686F6F74212053746F21
:1041B000707065642E2041646A7573746564206252
:1041C0006961733A20252E33660D0A00101C002009
:1041D00000004040000083423333733FCDCC4C3D60
:1041E0004175746F207475726E20636F6D706C65AD
:1041F000746564210D0A000000003442000034425E
:104200003333333F9A99993E00009643801B002038
:10421000C0170020FEE701684A69D24352050FD457
:104220006FF480624A61002140F8301F20224273FF
:104230008173026942F00402026101730120704738
:10424000002070472DE9F84F0446006889460B9D11
:1042500001689846174641F4806101602068016852
:1042600041F48071016000954FF0011B0022594616
:1042700020460A9B00F0E4F84FF4007A40B1206831
:104280000068C00501D5C4F840A00320BDE8F88F40
:10429000216809F0FE0008612B46284920460A9A49
:1042A00000F016F9F0BB20684169806900902A4649
:1042B00020460A9900F0A2F940B1206C04283AD1B6
:1042C0002068016841F40071016034E0FEB2B8F189
:1042D000010F09D02168380A08612A4620460A9948
:1042E00000F08CF90028E8D1206806612A462046B3
:1042F0000A9900F083F90028DFD12068016841F4B1
:104300008071016000950022594620460A9B00F00A
:1043100097F80028B3D1216809F0FF0040F00100B0
:10432000086100E007E02B46044920460A9A00F0A5
:10433000CFF80028AAD00120A8E700000200010061
:104340002DE9F843044600680D46DDE90897016849
:104350009846164641F4807101604B4600224FF0AA
:1043600001112046009700F06BF848B12068006802
:10437000C00502D54FF4007020640320BDE8F88327
:10438000216805F0FE0008613B464A461549204673
:1043900000F09EF888B920684169806900903A462B
:1043A0004946204600F02AF948B1206C042804D17F
:1043B0002068016841F4007101600120DEE7F5B278
:1043C000B8F1010F09D02168300A08613A46494620
:1043D000204600F013F90028E7D12068056100208D
:1043E000CCE700000200010070B516460D460446F9
:1043F0001EE02046FFF70FFF08B1012070BD681CCA
:1044000016D0FEF747F9801BA84200D885B920686E
:104410004069C04340070BD5002044F8300F2021ED
:104420006173A073216941F0200121612073E4E7E9
:1044300020684069C0434007DBD4002070BD000005
:104440002DE9F047984617460D460446C1F3074646
:10445000DDF820902AE000BFB8F1FF3F26D0FEF73C
:1044600019F9A0EB0901414502D8B8F1000F1DD19F
:104470002068012E16D0806925EA00000004000C97
:1044800012D00020B84211D1002044F8300F202172
:104490006173A073216941F0200121612073012023
:1044A000BDE8F0874069E7E70120EBE72068012ECF
:1044B0000AD0806925EA00000004000C06D0002024
:1044C000B842C9D00020EBE74069F3E70120F7E7E5
:1044D0002DE9F047984616460D4604464FF0000970
:1044E0004FF0200AC1F3074723E020684069C0432A
:1044F000400515D42068016841F40071016021680D
:104500006FF480604861C4F8309084F83DA084F86E
:104510003E90216C41F00401216484F83C9021E03C
:10452000701C06D0FEF7B6F8A0EB0800B04203D826
:1045300016B1012F1FD021E02068012F15D080690E
:1045400025EA00000004000C18D000BF44F8309F9A
:1045500084F80DA084F80E90216941F020012161BA
:1045600084F80C900120BDE8F087406925EA00003E
:104570000004000CEAD12068406901E020688069ED
:1045800025EA00000004000CAFD1ECE72DE9F04172
:10459000002590460E460446202728E04069C04387
:1045A000C0060CD454F8301B6FF01000486144F87A
:1045B00010596777A577206A2062257714E0FEF707
:1045C00069F8A0EB0800B04200D886B920684069BD
:1045D000C04340060BD544F8305F6773A57320696C
:1045E00040F02000206125730120BDE8F0812068A3
:1045F0004169C9434906D1D40020F6E770B5164693
:104600000D4604461EE02046FFF705FE08B10120D6
:1046100070BD681C16D0FEF73DF8801BA84200D87C
:1046200085B920684069C04300060BD5002044F8D6
:10463000300F20216173A073216941F020012161B5
:104640002073E4E720684069C0430006DBD4002003
:1046500070BD00002DE9F14F4FF0000AAAB0D1461D
:10466000D0465646554654466423182233A13A484C
:10467000FFF785FC00274FF4FA7B64220E2125A862
:104680008DE8070001233B22D0212A98FEF7CCF8C1
:10469000BDF8940040BA0AFA80FABDF8960040BA14
:1046A00009FA80F9BDF8980040BA08FA80F8BDF818
:1046B0009C0040BA06FA80F6BDF89E0040BA05FAA2
:1046C00080F5BDF8A00040BA04FA80F40520FDF79B
:1046D000DBFE7F1C5F45D0DB58469AFBF0F199FB6F
:1046E000F0F298FBF0F796FBF0F60BB21B4995FB46
:1046F000FBF594FBFBF04B8112B2A7F580478A8152
:104700003FB2CF8136B20E822DB24D8200B2888286
:10471000CDE900270296CDE90350114A802105A872
:10472000FBF76EFE05A8FBF7DBFF82B2642305A949
:104730000948FFF724FC2BB0BDE8F08F43616C699A
:1047400062726174696E67204D5055363530302E77
:104750002E2E0D0A00000000101C0020000000207A
:10476000187600082DE9F0418EB0804601250CA88E
:10477000CDE9000564242B467522D02102944046E1
:10478000FEF752F89DF83030702B0FD02BA21E216F
:1047900004A8FBF735FE04A8FBF7A2FF82B264234E
:1047A00004A92E48FFF7EBFB72B6FEE76423102244
:1047B0002BA12A48FFF7E3FB00208DF80C0003AE85
:1047C0000096CDE9015401236B22D0214046FEF72B
:1047D0002DF96420FDF758FE08278DF80C7000961F
:1047E000CDE9015401231B22D0214046FEF71EF9DA
:1047F0008DF80C700096CDE9015401231C22D021C4
:104800004046FEF713F906208DF80C000096CDE91E
:10481000015401231A22D0214046FEF707F9072050
:104820008DF80C000096CDE9015401231922D02106
:104830004046FEF7FBF80EB0BDE8F0814D5055360E
:10484000353030204E6F7420466F756E64212049DC
:10485000443A307825580D0A00000000101C002052
:104860004D50553635303020466F756E64210D0A37
:104870000000000000B587B064230E2203A98DE874
:104880000E0001233B22D021FDF7CEFFBDF80C0026
:1048900041BA14484289891AC182BDF80E10828932
:1048A00049BA891A0183BDF81010C28949BA891A18
:1048B0004183BDF8121049BA4184BDF81410028A30
:1048C00049BA891A8183BDF81610428A49BA891AF1
:1048D000C183BDF81810828A49BA891A018407B0C9
:1048E00000BD0000000000207FB5002415480094A2
:1048F000019402941249039401604FF48031C0E99D
:1049000001140461047680F820400F49C0E90A14BC
:104910000125C561C46080F830404561FDF78CFB1E
:1049200008B1FDF7D4FA0220CDE9000569460294EA
:104930000448FDF7CFFA002801D0FDF7C8FA7FBD83
:10494000002001409C1A00200100000F154808B506
:10495000016841F4800101600068002200F48000D9
:10496000009011463920FEF799F93920FEF788F9B1
:10497000002211463A20FEF791F93A20FEF780F91D
:10498000002211464520FEF789F94520FEF778F907
:10499000002211464620FEF781F9BDE80840462076
:1049A000FEF76EB93038024030B587B01421684642
:1049B000FBF72CFF25480024016841F00401016049
:1049C000016801F004010591016841F08001016076
:1049D000016801F080010591016841F00101016069
:1049E000016801F001010591016841F002010160D7
:1049F0000068174D00F00200059000222021284693
:104A0000FDF742FE4FF4005000904FF40410CDE942
:104A1000010469460F48FDF749FD08200090022077
:104A2000CDE901040320039007200490694628463D
:104A3000FDF73CFD202000900120CDE901046946EE
:104A400028460394FDF732FD07B030BD30380240F0
:104A500000000240000802400D4810B50B490160FB
:104A60000C49416000214FF480428160C0E903128B
:104A700041618161C1610162FDF712FE002803D02E
:104A8000BDE81040FDF723BA10BD000000540040FF
:104A9000E41A0020A086010010B58CB024216846DD
:104AA000FBF7B4FE0024144809944FF080410A94A7
:104AB000C0E90014611EC0E9024104618461012063
:104AC000CDE90004CDE902040494CDE90540079442
:104AD000694609480894FEF777FC08B1FDF7F7F935
:104AE000099409A904480A94FEF726FC002801D07D
:104AF000FDF7EDF90CB010BD381B002010B58AB0E1
:104B0000002407941C2168460894FBF77FFE224886
:104B1000204901605321C0E9011440F2E731C0E9A6
:104B200003148461FEF7E0FD08B1FDF7D0F90794A6
:104B300007A919480894FEF7FFFB08B1FDF7C7F96C
:104B40006020CDE9000402940022694612480494D2
:104B5000FEF764FD08B1FDF7BAF9042269460E4874
:104B6000FEF75CFD08B1FDF7B2F9082269460A4874
:104B7000FEF754FD08B1FDF7AAF90C226946064874
:104B8000FEF74CFD08B1FDF7A2F90348FEF70AFD58
:104B90000AB010BD00040040801B002010B58CB08E
:104BA00024216846FBF732FE002415480994134976
:104BB0000A94C0E900144FF6FF71C0E90241046194
:104BC00084610120CDE90004CDE902040494CDE91B
:104BD0000540079469460A480894FEF7F5FB08B1BA
:104BE000FDF775F9099409A905480A94FEF7A4FB95
:104BF000002801D0FDF76BF90CB010BD0008004093
:104C0000C81B00200C4810B50A4901604FF4E1317F
:104C10004160002181600C22C160C0E90412816101
:104C2000C161FEF749FF002803D0BDE81040FDF741
:104C30004EB910BD00100140101C00200C4810B5EA
:104C40000A4901604FF4E1214160002181600C229A
:104C5000C160C0E904128161C161FEF72DFF002827
:104C600003D0BDE81040FDF732B910BD001401407B
:104C7000581C0020FEE7FEE7DFED090A094901E0C4
:104C800030EE600A10EE100A8842F9DC064900BFD7
:104C900010EE100A884202D930EE200AF8E7704779
:104CA0000000B44300003443000034C390ED000A18
:104CB00081ED000A90ED010A82ED000A90ED020AF2
:104CC00083ED000A704790ED030A81ED000A90ED34
:104CD000040A82ED000A704770B50C460546202193
:104CE000FBF794FD05490CB11DCC01E0044B1DCB35
:104CF00081E81D00FDF7CEFCE86170BD201E00209C
:104D0000BC74000880EC030A704700002DE9F041F4
:104D100015462DED048B0E460446FDF7BBFC0246FE
:104D2000E069101A00EE100AF8EE400A9FED471AEB
:104D3000474980EE810A10EE100A88427DDB6069E7
:104D40004FF40043311AA069281A994201DDA1F5F8
:104D50008031404FB94201DA01F58031984201DDDE
:104D6000A0F58030B84201DA00F580306661C4E910
:104D70000652394A9FED398A138992ED031A00EEE3
:104D8000903AF8EE600A60EE810A92ED001A21EE88
:104D9000081AC0EE811A00EE901AB8EEE01AC1EEC1
:104DA000210A01EE100AB8EEC12A82EE211AF6EEAF
:104DB000001A30EE812A71EE600A92ED011A22EE9D
:104DC000219AC0EE818AC9EE000AC4ED030AC8EE3A
:104DD000800AC4ED040AD4ED029A48EEA19AB0EE1E
:104DE000690A01F03FF9D4ED000A49EE000AB0EE7D
:104DF000690AC4ED000A01F07DFAD4ED010A1849F0
:104E000049EE000AC4ED010A94ED020A30EE280AC8
:104E100084ED020A04E000BF30EE480A84ED020A85
:104E200010EE100A8842F7DC0E4900BF10EE100A9F
:104E3000884206D930EE080A00E002E084ED020A5A
:104E4000F4E7BDEC048BBDE8F081000000007A447B
:104E50006F12833A0080FFFF201E0020DB0FC94045
:104E6000DB0F4940DB0F49C070B58CB0FDF712FC79
:104E7000164D1549AE7901EB0614217BC9B1A16825
:104E8000401AB0F57A7F02D90020207311E0206823
:104E900002F0E6F922798DE8070033460CA22021C2
:104EA00003A8FBF7ADFA82B20A2303A91048FFF763
:104EB00066F8A8794FF4B471401CB0FBF1F201FB25
:104EC0001200A8710CB070BD30010020000000205D
:104ED0004C696461723A20413D25642C20443D2593
:104EE0002E30666D6D2C20513D25640A00000000B7
:104EF000101C002070EE600A90ED030A30EE200ACC
:104F000080ED030A90ED051AB4EEC10AF1EE10FA35
:104F100006DCB1EE411AB4EEC10AF1EE10FA01D28C
:104F200080ED031A90ED040AC0ED040AD0ED031AD7
:104F300030EEC01A90ED010A20EE210AD0ED001AE1
:104F400001EEA00AD0ED020A00EE810A7047704718
:104F500080F82810002905D19FED030A80ED060A8C
:104F600080ED070A704700000000000010B50C46F5
:104F70002C21FBF74BFC4FF028020CB1214600E03E
:104F80000249BDE810400248FBF70EBCCC74000893
:104F9000301E002010B504462DED028B90ED030A63
:104FA000D0ED000A90ED011A30EE600AD0ED040A4F
:104FB00070EEC10A20EE000A00EEA00A01F062FACB
:104FC000B0EE408A94ED050AD4ED020A30EE600A94
:104FD000FFF752FE0C48F0EEC00A90ED060AB4EE60
:104FE000C80AF1EE10FA0CDD90ED070AB4EEE00A03
:104FF000F1EE10FA05DD012084F82900BDEC028BEA
:1050000010BD0020FAE70000301E002000F10C0265
:10501000002182EC030A9FED040A80F8291080ED3C
:10502000060A80ED070A7047000000002DE9F041F4
:1050300007462DED068BB0EE40AA0C46002691F8EF
:10504000280010B194F8290030B13E607E60BE6047
:10505000BDEC068BBDE8F08194ED030AD4ED000AA7
:1050600070EE608A94ED040AD4ED010A30EE608A95
:1050700028EEA80A08EE080A01F004FAF0EE409AB9
:10508000F0EE680AB0EE480A00F096FEDFED8A0AFC
:1050900060EE200A9FED891A80EE810AD4ED020AA3
:1050A00030EE600AFFF7E8FDF0EE408A94ED050A65
:1050B000D4ED020A30EE600AFFF7DEFDB0EE409A52
:1050C0009FED7F8A7F4DB0EE480AD5ED061A9FED21
:1050D0007E1ADFED7E0AF4EEE91A4FF00108F1EED8
:1050E00010FA26DD95ED072AF0EEC91AF4EEC21A81
:1050F000F1EE10FA1ADD94ED070A09EE0A0A84EDC2
:10510000070AFCF715FD84ED070AD4ED090A84EDC2
:10511000099A39EE601AC1EE0A0A95ED041A21EED9
:10512000000A95ED031A01EE090A23E084F82980AC
:1051300069E0B0EEE80A10EE100A6549884222DD07
:1051400094ED070A08EE8A0A84ED070AFCF7F0FCE2
:1051500084ED070AD4ED090AC4ED098A38EEE01A95
:10516000C1EE0A0A95ED041A21EE000A95ED031A24
:1051700001EE280A95ED051A01EE200A95ED091AAF
:10518000F1EE410A3DE094ED060AB3EE041AFBEE9F
:10519000040A09EE8A0A84ED060AFCF7C9FC84EDCC
:1051A000060AD4ED080AC4ED089A39EEE01AC1EEF9
:1051B0000A0A95ED011A21EE000A95ED001A01EE9A
:1051C000290A95ED021A01EE200A95ED081AF0EE73
:1051D000480AFCF7ADFCB0EE408A95ED030ADFED1E
:1051E0003D0A20EE200ADFED3C0A60EE281A95ED1C
:1051F000090A20EE201ADFED390A60EE200AB0EE2F
:10520000610AFCF795FCDFED360ADFED368ADFED4B
:10521000369A20EE201AB0EE480AF6EE000A01EEA9
:10522000600A01EE208AD5ED080A20EE281A81EEE8
:10523000200A28EE281A81EE209AB0EE681AF0EEC5
:10524000690AFCF775FCB0EE408AB0EE681AF0EE21
:10525000690AB0EE490AFCF76BFCB5EEC08AF1EEC4
:1052600010FA09DDF0EE400AF5EEC00AF1EE10FA90
:1052700002DD68F3070618E0F0EE480AF5EEC00A12
:10528000F1EE10FA0ED2F0EE400AF5EEC00AF1EEA1
:1052900010FA07D2022060F30706B1EE488AB1EE99
:1052A000400A02E0032060F3070687ED008A87EDDD
:1052B000010ABE60CCE6000000003443DB0F494029
:1052C00000000000301E002000004842000048C2DC
:1052D0000000F0419A99193E9A99993E9A9999BE7F
:1052E000CDCC4C3E0000C8430000C8C380EC030A8C
:1052F0007047000030B52DED028B93B00278110697
:1053000055D5B0F80110CB0751D0490800EE101A5E
:10531000DFED390AB0F80300B8EE400AB5EE001A26
:1053200002F07F0520EE200A00EE900AF8EE600AF7
:10533000B5EEC00A20EE818AF1EE10FA3BDB10EEEA
:10534000100A2E49884236DCDFED2D8AF0EE680A1D
:1053500000F078FFB5EEC00AF1EE10FA01D230EE9F
:10536000280A18EE100A27490844274988421ED8FF
:10537000002D1CD0F6EE000A4FF4B47130EE200A76
:10538000BDEEC00A10EE100A90FBF1F201FB120014
:10539000002801DA00F5B4701C4901EB001484ED1B
:1053A000008A2571FDF776F9A0600120207313B003
:1053B000BDEC028B30BD1648846E641C846664208C
:1053C000B4FBF0F100FB11400028F0D110EE100A00
:1053D00001F046FF8DE813000EA2402103A8FBF761
:1053E0000FF803A8FBF77CF982B2642303A91448E1
:1053F000FEF7C5FDDBE700000000803C0000B44381
:105400000000B4430000B8BD0080F3033001002069
:1054100000000020496E76616C696420616E676CE3
:10542000652064657465637465643A20252E326670
:105430002028436F756E743A20256C75290A000088
:10544000101C00207047000010B50446FDF722F93B
:105450006168401A04490969884202D901206070D4
:1054600010BD0020607010BD581E002005480021AE
:1054700002685163026891630268D1630068016445
:1054800070470000801B002010B50446FDF702F9AC
:1054900060600020607010BD4FF0140208B101463A
:1054A00000E002490248FBF77FB90000F4740008ED
:1054B000581E002000EE900AF8EE600AB4EEE00AF2
:1054C000F1EE10FA05DCB5EEC00AF1EE10FA01D2E9
:1054D00000207047BCEEC00A10EE100A80B2704780
:1054E00010B500210170FFF7AFFF002803D0BDE821
:1054F0001040FFF7BBBF10BD10B5094CE078002885
:105500000CD02079002809D14FF47A730B2204F1D2
:1055100098010448FEF733FD0120207110BD000002
:1055200000000020101C0020FDF74EBB30B593B0EA
:1055300034216846FBF76AF914210DA8FBF766F9D8
:1055400020480025016841F080510160006800F0AA
:10555000805012901C48016841F44041016000688D
:10556000022400F440401290012003901020049087
:10557000009406940820CDE90750B420CDE9090431
:105580000B9468460C94FDF7F7FC08B172B6FEE781
:10559000FDF7B6FB08B172B6FEE70DA90F2081E852
:1055A00031004FF4A05010904FF48050119005211D
:1055B0000DA8FDF7DDFB002801D072B6FEE713B0A1
:1055C00030BD0000403802400070004002480168D1
:1055D00041F470010160704788ED00E0F0B50268A9
:1055E000274B284D284E294F294C4FF0804C98428C
:1055F00009D0604507D0A84205D0B04203D0B842D8
:1056000001D0A04204D122F0700E4A6842EA0E0294
:1056100098421BD0604519D0A84217D0B04215D08F
:10562000B84213D0A04211D01A4DA8420ED01A4D44
:10563000A8420BD0194DA84208D0194DA84205D058
:10564000184DA84202D0184DA84203D122F440754B
:10565000CA682A434D6922F080022A438D68C562D8
:105660000D688562984201D0A04201D109690163A9
:10567000016841F004010160012141610260F0BD57
:10568000000001400004004000080040000C004001
:105690000004014000400140004401400048014036
:1056A00000180040001C00400020004010B501F030
:1056B0001F030121046A99408C430462016A9A40E5
:1056C0001143016210BD0000F0B5036A026A22F0C6
:1056D0000102026242688469124E24F073050C686C
:1056E0002C4323F002058B682B430D4DA84201D0BB
:1056F000B04205D123F00807CB683B4323F00403F5
:10570000A84201D0B04205D14D6922F44072154340
:105710008A692A4342608461496841630362F0BD3B
:105720000000014000040140F0B5026A036A23F062
:1057300010030362436884690D6824F4E64444EA74
:1057400005248D6822F0200242EA05120F4D104E0A
:10575000A84201D0B04206D1CF6822F0800242EACE
:10576000071222F04002A84201D0B04207D14D6991
:1057700023F4406343EA85038D6943EA850343606C
:105780008461496881630262F0BD0000000001404D
:1057900000040140F0B5026A036A23F480730362D7
:1057A0004368C46922F4007224F073050C68124E39
:1057B0002C438D6842EA05220E4DA84201D0B0422A
:1057C00006D1CF6822F4006242EA072222F4806206
:1057D000A84201D0B04207D14D6923F4405343EAB7
:1057E00005138D6943EA05134360C4614968C163C9
:1057F0000262F0BD000001400004014030B5046ABF
:10580000026A22F4805202624268C3690D6823F47E
:10581000E64343EA05238D6824F4005444EA053442
:10582000084DA84202D0084DA84204D14D6922F487
:10583000804242EA85124260C361496801640462A1
:1058400030BD0000000001400004014010B5806B35
:105850000021C185FDF7EFFF10BD70B5846B206896
:10586000406994F84110C0F3C0100025212904D1EB
:1058700018B1E584204600F08EF82068406994F85D
:105880004210C0F38010222904D118B1E5852046CA
:1058900000F05AF8606C40F0100060642046FDF79C
:1058A000CAFF70BD10B50146806B096809684FF0EA
:1058B0000002C9052ED4C28501680C3151E8003FB1
:1058C00023F4807341E80034002CF5D101681431D1
:1058D00051E8003F23F0010341E80034002CF5D1EA
:1058E0000168143151E8003F23F0400341E80034DF
:1058F000002CF5D1202180F84210016B012909D13B
:1059000001680C3151E8003F23F0100341E80034F6
:10591000002CF5D14263016B012902D0FEF7DCF9BE
:1059200010BD818DFDF786FF10BD10B5806B012184
:105930004163016B012902D0FEF720FB10BD818D70
:105940004908FDF777FF10BD01680C3151E8002FC1
:1059500022F4907241E80023002BF5D10168143144
:1059600051E8002F22F0010241E80023002BF5D17D
:10597000016B012909D101680C3151E8002F22F097
:10598000100241E80023002BF5D1202180F84210BD
:1059900000210163704701680C3151E8002F22F0AB
:1059A000C00241E80023002BF5D1202180F84110EE
:1059B000704708B590F84210222901D0022008BD96
:1059C00082684FF480539A4201D1016921B1816A02
:1059D0009A421BD04AB10AE00268816A5268C2F357
:1059E00008020A80816A891C08E0026972B10268B3
:1059F000526802F07F020A70816A491C8162C18D7F
:105A0000491E0904090CC18503D01BE002685268D5
:105A1000F1E70168CA6822F02002CA600168CA681A
:105A200022F48072CA6001684A6922F001024A6168
:105A3000202180F8421000214163026B012A03D02B
:105A4000FEF74AF9002008BD016301680C3151E8F6
:105A5000002F22F0100241E80023002BF5D101684D
:105A60000A68D20602D50A6849680091818DFDF75F
:105A7000E1FEE7E770B5044600680169E26821F4D9
:105A80004051114301612169A068E26908436169DD
:105A9000114308432168CA6849F20C639A430243E0
:105AA000CA6020684169A26921F4407111434161D3
:105AB00031492068884202D03049884202D1FDF73E
:105AC00001FA01E0FDF7EEF9E269002319216425EE
:105AD0003226B2F5004F626828D0A0FB0101930F77
